:020000040000FA
:04000000803119280A
:100008007E1480310B1F09280A2817282100111C8B
:100018000E280F2817282000111C13281428172829
:1000280083310C2380317E10090080311B288431F4
:1000380042248031D600843143248031D700843172
:1000480044248031D800FB01203084000030850032
:1000580022308331E72380317E1020008231F62A56
:100068002000CE0008303F0203183B283C284428D3
:100078004E183F28402844284108CC004C08C000AE
:1000880009303F02031C49284A28592810303F02EA
:1000980003184F28502859284E1C532854285928EB
:1000A8004108CC004C08C000902811303F02031CC6
:1000B8005E285F2890280230CC004C08C0009028A9
:1000C800C1010F30CC004C08C8004E0883317A2398
:1000D80080312000C001C00AA328C101C10A4B30E9
:1000E800CC004C08C8004E0883317A2380312000A8
:1000F800C001A3280230CC004C08C1002D30CC0030
:100108004C08C8004E0883317A2380310230200021
:10011800CC004C08C000A3284008CC00CD014D08F5
:10012800003A03199828A3284C08003A03196428B0
:10013800013A03197128033A03197E28A3283F08B6
:10014800013ECC004C08BF0019303F02031CAD280B
:10015800AE28B128BF01C101C00108008331F923CD
:100168008031003A0319B928BA28EA28C728843107
:1001780027248031062984312224803106298431BC
:1001880018248031062920002F08F3007308C200C4
:100198000630203E86008701413F8A00403F0A0022
:1001A8008031F400F5017508003A0319DC28C328EA
:1001B8007408013A0319C328033A0319BB28013A02
:1001C8000319BF28073A0319C328C32820003C1085
:1001D8001730203E86008701403F84008501810A50
:1001E800000884313124803101302000B802003009
:1001F800B93B38083904031D0229032905290630AB
:10020800062903300800843148248131F200200097
:10021800370886008701720881000130F2007208F1
:10022800B7070130B8020030B93B38083904031960
:100238001E291F29242984313A24813105304C296B
:10024800BC152E298431092481314C2984310E248E
:1002580081314C292C08F2007208C20021088A005A
:1002680020080A008131F300F4017408003A0319E8
:100278003E292A297308013A03192A29033A03193E
:100288002629013A03192629073A03192A292A296E
:100298000800F300F401F40A20003C1954295529F8
:1002A80085297308F2007208B600BC103C153C1092
:1002B8000E30F2007208BA00F430B4000130B50014
:1002C800BC156530A0000430A100AC016530A20067
:1002D8000430A300AD016530A4000430A500AE01D0
:1002E8006530A6000430A700AF016330A8000430D1
:1002F800A900B00184315D24813183319623813195
:10030800F401740808002000C70020004708813164
:100318004D218131003A03199229932989293730CF
:10032800F7000330F80045302000C6004608F90001
:100338008331B02381310130F2000030F3004430C2
:1003480083316A2381310030F700F800F9018331E5
:10035800892381318331FF2381318231C222813166
:10036800013A0319B829B929B12908002000BC1598
:10037800CA2984311D248131E829843145248131F9
:100388000330E829843118248131E8292C08F20047
:100398007208C20021088A0020080A008131F3008F
:1003A800F4017408003A0319DA29C6297308013AD6
:1003B8000319C629033A0319BD29013A0319BD29AE
:1003C800073A0319C129C629080020003C10023049
:1003D800F2007208BB00F82984311D248131142AE7
:1003E800843118248131142A2E08F2007208C200C0
:1003F8000430203E86008701413F8A00403F0A00C2
:100408008231F300F4017408003A03190C2AF42924
:100418007308023A0319F029013A0319F029F4295B
:10042800080084315D24823120003C1C1C2A1D2ACE
:100438002A2A8331F9238231003A0319242A252AEA
:100448002A2A0F30F60076082000BA0020003A0861
:10045800F600F701F635F70D66307607840082302E
:10046800773D8500013F8A00003F0A008231F8008D
:1004780078082000BA000800F6007208730403190F
:10048800462A472A582A7635203E86008701720870
:10049800C03F7308C13F7408F50076082C3E8600FB
:1004A800870175088100652A7635203E8600870118
:1004B8006530C03F0430C13F76082C3E8600870176
:1004C800810108002C340434CF340334D834033485
:1004D800B234003407340134E0340334BA3401341C
:1004E80027340434223404341D34043418340434D6
:1004F800133404340E340434093404340434043416
:10050800E93401342000C200C301C30ABC188D2A93
:100518008E2AA22ABC14C30142080319942A952AD8
:10052800982ABA01BA0A9C2A0230F9007908BA0056
:100538008431542482318331A3238231200043083B
:1005480008002000D001D101B42A200050081F3E25
:1005580080313420823101302000D0070030D13D75
:100568005108803ACF0080304F02031DBD2A023067
:100578005002031CC02AC12AA92A0800F301F30A61
:100588002000BC18C82AC92ADC2A3C11FF30F20016
:100598007208B60084315D24823184315724823157
:1005A80084315A24823120003B08F2007208F3009B
:1005B80073080800200099010B309700DC30960082
:1005C80011101708D5001608D40021001114603046
:1005D800F2000430F3008331ED2382313130200002
:1005E8009800080083315A2382318B170B17843106
:1005F80067248231003A0319022B032BFB2A82312C
:10060800A5228231843169248231FB2A803119285C
:10061800200011105508F1005408F00083314923D7
:10062800833120005208530403191B2B1C2B212B48
:1006380053088A0052080A008331080022008C01FE
:1006480002308E00303021008C003F308E000C309C
:1006580023008E0010308C0024008C012100951797
:1006680022009D0108000130F2000030F300200054
:10067800420883316A2383310030F700F800F9011A
:100688008331B0238331043008002000181D4D2B1E
:100698004E2B552B181071089700700896001814E7
:1006A800592B710897007008960008008331C623FB
:1006B80083318331222383318331BD2383318431D4
:1006C800362483318231DE2283310800F500200090
:1006D800BC1D6F2B702B792B7508F4007408B700BC
:1006E8007308B9007208B800BC1108002000CB00DC
:1006F8000F30C9004908C4004808CA004A08C500A4
:100708004B0881318721833108007808F300770886
:10071800F2007908FA007A08F400023082314022A7
:10072800833108002400951A9A2B9B2BA22B940145
:100738000830950096010430920095160800AA2BFF
:100748008331F32383318231152283312000BC1891
:10075800AE2BAF2BA42B08007808F3007708F20023
:100768007908FA007A08F400003082314022833197
:100778000800323021009900980127009B012200CF
:100788009601080024009401083095009601043071
:1007980092009512080020003C140314360D843191
:1007A800312483310530080020003C14363584316B
:1007B800312483310330080020003C1084314B245D
:1007C800833104300800640080010131890BE82B73
:1007D800003473082000D3007208D20008002000FB
:1007E800911DF72BF82BF32B08002400160E890C0B
:1007F800890C0139080000308231862283310800D3
:100808002000BC10BB010E30080084313E24843126
:100818000930080084313E2484310A3008008431CC
:100828003A2484310530080084314E248431003064
:100838000800843151248431013008008431512466
:100848008431023008008431512484310130080099
:100858002000BC10BB010E300800F2007208240012
:100868009100080016302100970008002400961215
:100878001616080024009616161608004B342D3458
:100888000F342000911508002400110808002400E6
:100898009615080024001615080024009614080070
:1008A8002400161408002100911108002400951254
:1008B8000800200091110800FB01FB0A0800053020
:0E08C8000800013008007B080800FB01080052
:020000040001F9
:04000E00E43F4F3E3E
:00000001FF
