:020000040000FA
:0400000080313528EE
:100008007E1480310B1F09280A2833282100921DED
:100018000E280F281A282000921D132814281A28A1
:1000280030088A002F080A00803133282100911DEA
:100038001E281F2825282000911D2328242825282C
:1000480014282100111C29282A2833282000111CD3
:100058002E282F28332882312022803133287E1001
:10006800090080313728F601F701F801F90120303D
:1000780084000030850018308331032380317E10DE
:1000880020008131512983316B2380318231FC2258
:100098008031003A031951285228642883314223B9
:1000A8008031003A031959285A285F280130F20094
:1000B8007208F800A4280230F2007208F800A42898
:1000C800833142238031003A03196B286C28712848
:1000D8000330F2007208F800A4280430F200720815
:1000E800F800A4288231912280318231F5228031B2
:1000F800003A031980288128BA2882317722803172
:10010800BA28823191228031BA288231F522803191
:10011800003A031990289128BA28812883314F235F
:100128008031003A031999289A28BA2883316E2316
:1001380080318231C4228031823184228031BA28D0
:100148007808F200F3017308003A0319AC28BA28BA
:100158007208013A03197628033A03198528013AE7
:1001680003198928073A03199228BA288331682382
:10017800803108002000BC00833153238031003ACD
:100188000319C728C828FF2820003C08BA003A08E5
:10019800A4002408BA00BB013A08F4003B08F500A3
:1001A8008131EF2180315A302000BA0024083A0208
:1001B800F400F501031CF5038131D6218031833128
:1001C80056238031FF282008BA003A08BD001929B3
:1001D8002108BA003A08BD0019292208BA003A08CD
:1001E800BD0019292308BA003A08BD00192983312E
:1001F8004B238031192920003C08BA00BB013B0879
:10020800003A0319082919293A08013A0319E72875
:10021800033A0319EC28013A0319F128073A03199C
:10022800F6280B3A0319FB28192920003D088331C9
:100238000F238031080082316A2281311F308331D7
:10024800382381317F308331332381314730F400C3
:100258000030F5008331272381319E30F4000230CD
:10026800F500833115238131E530F4000230F500C3
:10027800833121238131ED30F4000230F5008331E0
:100288002D2381310030F4000030F50083311B2329
:100298008131833159238131080081319C21813199
:1002A8008B170B1781311F218131833171238131E4
:1002B800003A031960296129672981317B2181313D
:1002C80083317323813183315C238131003A0319EF
:1002D8006E296F29592983315F2381318031BE20EE
:1002E80081318331622381315929803135280330A6
:1002F8008131BB21813121001C082000BA003A0855
:10030800A00021001B082000BA003A08A10006300E
:100318008131BB21813121001C082000BA003A0834
:10032800A20021001B082000BA003A08A300080018
:100338008231B222813182315C228131823136228E
:1003480081318231A9228131833147238131823140
:10035800DD2281318231D52281318231BB22813146
:100368008231CD228131823108228131080020007A
:10037800B9003908B800B80DB80D21001D082000D3
:1003880038068339380621009D001D1400322100EB
:100398009D149D18D029D129CD291C08F5001B08CA
:1003A800F400080075082000B9007408B800B936D0
:1003B800B80CB936B80C38082C0095007408033905
:1003C8002000B8000530B835FF3E031DE729383551
:1003D8002C009400080075082000B9007408B800C3
:1003E800B936B80CB936B80C38082C009200740825
:1003F80003392000B8000530B835FF3E031D002A38
:1004080038352C009100080020009901E73097004A
:100418009630960011101708C1001608C000210078
:1004280011146530F4000330F5008331092382315B
:100438003130200098000800200011104108F10018
:100448004008F00082314B22823120003E083F04F0
:1004580003192F2A302A352A3F088A003E080A0045
:100468008231080022008C0102308E0030302100D9
:100478008C0017308E00043023008E0010308C0062
:1004880024008C012100951722009D0108002000FE
:10049800181D4F2A502A572A1810710897007008FB
:1004A800960018145B2A71089700700896000800D7
:1004B8002000A001A00AA101A10AA201A20AA30189
:1004C800A30A2D30F4007408A40008002400951A2B
:1004D8006E2A6F2A762A94010630F400740895046F
:1004E80096019516080020002B082C0403197D2A74
:1004F8007E2A832A2C088A002B080A0082310800E9
:1005080020002D082E0403198A2A8B2A902A2E08E7
:100518008A002D080A0082310800200029082A04D0
:100528000319972A982A9D2A2A088A0029080A0066
:1005380082310800833175238231F1007108F90096
:10054800790883313D238231080032302100990037
:10055800980127009B0122009601080024009401BD
:100568000630F40074089504960195120800C0300E
:1005780021009E009F019B019C0101309D00080005
:10058800F1002000B301B30A7108F0007008B1004F
:1005980008009B3020009B009A01911007309C00B6
:1005A8000800C0302C0096000B3095008030940075
:1005B8000800C0302C0093000B309200803091006E
:1005C800080083316E238231F00070082000B700E4
:1005D800080083316E238231F00070082000B600D5
:1005E800080003102400141C03140030093D0800FF
:1005F80003102400941E03140030093D0800640011
:1006080080010131890B042B003475082000BF00DC
:100618007408BE000800F5007508F4007408F700B7
:10062800080075082000AC007408AB0008007508C5
:100638002000A6007408A500080075082000AE0078
:100648007408AD00080075082000B0007408AF00F9
:10065800080075082000AA007408A9000800F40022
:100668007435240093000800F400743524009200C7
:100678000800F00070082400910008002400140C01
:10068800890C013908001630210097000800200065
:10069800B201B20A08002400140801390800200039
:1006A800320808002000B201080021009115080056
:1006B8002000330808002000310808002000B3019A
:1006C8000800F601F60A08002400151608002000A4
:1006D8009111080024001108080076080800F601A6
:0606E8000800770808007D
:020000040001F9
:04000E00E43F4F3E3E
:00000001FF
