:020000040000FA
:04000000803119280A
:100008007E1480310B1F09280A2817282100111C8B
:100018000E280F2817282000111C13281428172829
:1000280083317D2380317E10090080311B28843183
:10003800B8248031DC008431B9248031DD0084317A
:10004800BA248031DE00FA01FB0120308400003040
:100058008500213084315D2480317E102000833179
:10006800672B2000D400C301C30A54088131C22180
:1000780080312000C7004708CC000230C70047087D
:10008800C30054088131C22180312000C8004808CB
:10009800CD004D08C700C8014C08C900CA0149086D
:1000A800CA00C90147084907D00048084A3DD1009D
:1000B8000330C7004708C30054088131C22180318A
:1000C8002000C8004808CE000430C7004708C30015
:1000D80054088131C22180312000C8004808CF006F
:1000E8004F08C700C8014E08C900CA014908CA001C
:1000F800C90147084907D20048084A3DD3000230E1
:100108005102013003195002031C8B288C28A228A5
:10011800023053020030031952020318942895281C
:10012800A2280F30C7004708C3000F30C80048088E
:10013800C40054088131F8218031EC280230510282
:100148000030031950020318AA28AB28C12802302E
:100158005302013003195202031CB328B428C128E2
:100168000F30C7004708C3004B30C8004808C40018
:1001780054088131F8218031EC28023051020130D5
:1001880003195002031CC928CA28E0280230530268
:10019800013003195202031CD228D328E0280F305B
:1001A800C7004708C3002D30C8004808C4005408D9
:1001B8008131F8218031EC280F30C7004708C3008F
:1001C8002D30C8004808C40054088131F821803116
:1001D800080084316F248031003A0319F428F52887
:1001E8002529022984319D2480314129843198248C
:1001F8008031412984318E248031412920002F0803
:10020800F3007308C2000630203E86008701413F94
:100218008A00403F0A008131F400F5017508003A70
:1002280003191729FE287408013A0319FE28033A0E
:100238000319F628013A0319FA28073A0319FE2880
:10024800FE2820003C101730203E86008701403FE2
:1002580084008501810A00088431A7248031013097
:100268002000B8020030B93B38083904031D3D2985
:100278003E29402906304129033008008431BE2434
:100288008131F2002000370886008701720881005A
:100298000130F2007208B7070130B8020030B93BEC
:1002A80038083904031959295A295F298431B02497
:1002B800813105308729BC15692984317F24813132
:1002C800872984318424813187292C08F200720817
:1002D800C20021088A0020080A008131F300F401D5
:1002E8007408003A0319792965297308013A031932
:1002F8006529033A03196129013A03196129073A63
:100308000319652965290800F300F401F40A20009F
:100318003C198F299029C0297308F2007208B60089
:10032800BC103C153C100E30F2007208BA00F430D4
:10033800B4000130B500BC15DB30A0000430A100CA
:10034800AC01DB30A2000430A300AD01DB30A40017
:100358000430A500AE01DB30A6000430A700AF01D1
:10036800D930A8000430A900B0018431D3248131E8
:10037800843119248131F401740808002000C50073
:10038800C60120004508813188218131003A0319CE
:10039800CE29CF29C529A830F7000330F800463008
:1003A8002000C4004408F90084310B248131013055
:1003B800F2000030F30043308331ED238131003007
:1003C800F700F800F9018331FD2381318431752468
:1003D8008131833133238131013A0319F429F52915
:1003E800ED292000460808002000C6002000460825
:1003F800813188218131003A0319032A042AFA2914
:10040800BA30F7000330F80044302000C500450832
:10041800F90084310B2481310130F2000030F300FF
:1004280043308331ED2381310030F700F800F901C2
:100438008331FD2381318431752481318331332324
:100448008131013A0319292A2A2A222A0800200080
:10045800BC153B2A843193248231592A8431BB2428
:1004680082310330592A84318E248231592A2C084A
:10047800F2007208C20021088A0020080A008231AE
:10048800F300F4017408003A03194B2A372A730859
:10049800013A0319372A033A03192E2A013A031994
:1004A8002E2A073A0319322A372A080020003C105E
:1004B8000230F2007208BB00692A84319324823129
:1004C800852A84318E248231852A2E08F20072080A
:1004D800C2000430203E86008701413F8A00403F29
:1004E8000A008231F300F4017408003A03197D2AE6
:1004F800652A7308023A0319612A013A0319612A25
:10050800652A08008431D324823120003C1C8D2ABE
:100518008E2A9B2A84316F248231003A0319952A46
:10052800962A9B2A0F30F60076082000BA00200091
:100538003A08F600F701F635F70DD730760784004C
:100548008230773D8500013F8A00003F0A008231F2
:10055800F80078082000BA000800F6007208730452
:100568000319B72AB82AC92A7635203E860087019A
:100578007208C03F7308C13F7408F50076082C3E26
:100588008600870175088100D62A7635203E8600C8
:100598008701DB30C03F0430C13F76082C3E86001F
:1005A800870181010800A2340434453404344E34F0
:1005B8000434ED34003442340134563404342B34DA
:1005C80002349D34043498340434933404348E341F
:1005D800043489340434843404347F3404347A345D
:1005E80004345A3402342000C100C201C20ABC18C3
:1005F800FE2AFF2A132BBC14C20141080319052B3C
:10060800062B092BBA01BA0A0D2B0230F90079081A
:10061800BA008431CA2482318431262482312000F0
:10062800420808002000D601D701252B20005608D3
:100638001F3E80313520833101302000D60700303D
:10064800D73D5708803AD50080305502031D2E2B20
:1006580002305602031C312B322B1A2B0800F301EF
:10066800F30A2000BC18392B3A2B4D2B3C11FF30D4
:10067800F2007208B6008431D32483318431CD244A
:1006880083318431D024833120003B08F200720882
:10069800F30073080800200099010B309700DC3044
:1006A800960011101708DB001608DA002100111453
:1006B800D630F2000430F3008431632483313130C2
:1006C8002000980008008331DD2383318B170B1736
:1006D8008431DD248331003A0319732B742B6C2B7E
:1006E8008331162383318431DF2483316C2B8031AD
:1006F8001928200011105B08F1005A08F000833116
:10070800CC23833120005808590403198C2B8D2BD6
:10071800922B59088A0058080A00833108002200E1
:100728008C0102308E00303021008C003F308E006A
:100738000C3023008E0010308C0024008C01210026
:10074800951722009D0108000130F2000030F300E7
:10075800200042088331ED2383310030F700F80090
:10076800F90184310B248331023008000130F20092
:100778000030F300200042088331ED23833100303C
:10078800F700F800F90184310B24833104300800A4
:100798002000181DD02BD12BD82B181071089700CA
:1007A800700896001814DC2B7108970070089600E2
:1007B800080084313C24833183319323833184318D
:1007C800332483318431AC24833183314F23833103
:1007D8000800F5002000BC1DF22BF32BFC2B75083C
:1007E800F4007408B7007308B9007208B800BC11A7
:1007F80008007808F3007708F20079082000C100A3
:100808004108F40002308231B122833108007808AF
:10081800F3007708F20079082000C1004108F400CD
:1008280000308231B122843108002400951A1D2C31
:100838001E2C252C94010830950096010430920056
:10084800951608002D2C8431692484318231862242
:1008580084312000BC18312C322C272C080032306F
:1008680021009900980127009B01220096010800A9
:1008780024009401083095009601043092009512E6
:10088800080020003C140314360D8431A724843159
:100898000530080020003C1436358431A724843103
:1008A8000330080020003C108431C1248431043016
:1008B8000800640080010131890B5E2C0034730844
:1008C8002000D9007208D80008002000911D6D2C66
:1008D8006E2C692C08002400160E890C890C01392D
:1008E800080000308231F722843108002000BC1053
:1008F800BB010E3008008431B4248431093008006B
:100908008431B42484310A3008008431B02484311D
:10091800053008008431C424843100300800843153
:10092800C7248431013008008431C724843102305F
:1009380008008431C7248431013008002000BC102D
:10094800BB010E300800F200720824009100080074
:100958001630210097000800240096121616080089
:1009680024009616161608004B342D340F34200038
:1009780091150800240011080800240096150800A5
:1009880024001615080024009614080024001614E4
:100998000800210091110800240095120800200089
:1009A80091110800FA01FA0A080005300800013020
:0A09B80008007A080800FA010800A0
:020000040001F9
:04000E00E43F4F3E3E
:00000001FF
